{
  "_format": "hh-sol-artifact-1",
  "contractName": "Dapp",
  "sourceName": "contracts/Dapp.sol",
  "abi": [
    {
      "inputs": [],
      "stateMutability": "nonpayable",
      "type": "constructor"
    },
    {
      "inputs": [
        {
          "internalType": "string",
          "name": "_name",
          "type": "string"
        },
        {
          "internalType": "string",
          "name": "_message",
          "type": "string"
        }
      ],
      "name": "buyItem",
      "outputs": [],
      "stateMutability": "payable",
      "type": "function"
    },
    {
      "inputs": [
        {
          "internalType": "address",
          "name": "_to",
          "type": "address"
        }
      ],
      "name": "changeOwnerShip",
      "outputs": [],
      "stateMutability": "nonpayable",
      "type": "function"
    },
    {
      "inputs": [
        {
          "internalType": "address",
          "name": "_to",
          "type": "address"
        }
      ],
      "name": "checkBalance",
      "outputs": [
        {
          "internalType": "uint256",
          "name": "",
          "type": "uint256"
        }
      ],
      "stateMutability": "view",
      "type": "function"
    },
    {
      "inputs": [],
      "name": "getMemos",
      "outputs": [
        {
          "components": [
            {
              "internalType": "string",
              "name": "name",
              "type": "string"
            },
            {
              "internalType": "string",
              "name": "message",
              "type": "string"
            },
            {
              "internalType": "uint256",
              "name": "timestamp",
              "type": "uint256"
            },
            {
              "internalType": "address",
              "name": "from",
              "type": "address"
            }
          ],
          "internalType": "struct Memo[]",
          "name": "",
          "type": "tuple[]"
        }
      ],
      "stateMutability": "view",
      "type": "function"
    },
    {
      "inputs": [],
      "name": "owner",
      "outputs": [
        {
          "internalType": "address payable",
          "name": "",
          "type": "address"
        }
      ],
      "stateMutability": "view",
      "type": "function"
    }
  ],
  "bytecode": "0x608060405234801561001057600080fd5b50600080546001600160a01b03191633179055610802806100326000396000f3fe60806040526004361061005a5760003560e01c8063865c517211610043578063865c5172146100e65780638da5cb5b14610108578063b4496f1a1461014057600080fd5b806302be8e4e1461005f5780635f515226146100ab575b600080fd5b34801561006b57600080fd5b506100a961007a366004610462565b6000805473ffffffffffffffffffffffffffffffffffffffff19166001600160a01b0392909216919091179055565b005b3480156100b757600080fd5b506100d36100c6366004610462565b6001600160a01b03163190565b6040519081526020015b60405180910390f35b3480156100f257600080fd5b506100fb610153565b6040516100dd91906104d8565b34801561011457600080fd5b50600054610128906001600160a01b031681565b6040516001600160a01b0390911681526020016100dd565b6100a961014e36600461061f565b6102f9565b60606001805480602002602001604051908101604052809291908181526020016000905b828210156102f057838290600052602060002090600402016040518060800160405290816000820180546101aa90610683565b80601f01602080910402602001604051908101604052809291908181526020018280546101d690610683565b80156102235780601f106101f857610100808354040283529160200191610223565b820191906000526020600020905b81548152906001019060200180831161020657829003601f168201915b5050505050815260200160018201805461023c90610683565b80601f016020809104026020016040519081016040528092919081815260200182805461026890610683565b80156102b55780601f1061028a576101008083540402835291602001916102b5565b820191906000526020600020905b81548152906001019060200180831161029857829003601f168201915b505050918352505060028201546020808301919091526003909201546001600160a01b03166040909101529082526001929092019101610177565b50505050905090565b60003411610367576040517f08c379a000000000000000000000000000000000000000000000000000000000815260206004820152601a60248201527f506c65617365205472616e7366657220736f6d65204574686572000000000000604482015260640160405180910390fd5b600080546040516001600160a01b03909116913480156108fc02929091818181858888f193505050501580156103a1573d6000803e3d6000fd5b5060408051608081018252838152602081018390524291810191909152336060820152600180548082018255600091909152815160049091027fb10e2d527612073b26eecdfd717e6a320cf44b4afac2b0732d9fcbe2b7fa0cf601908190610409908261070c565b506020820151600182019061041e908261070c565b50604082015160028201556060909101516003909101805473ffffffffffffffffffffffffffffffffffffffff19166001600160a01b039092169190911790555050565b60006020828403121561047457600080fd5b81356001600160a01b038116811461048b57600080fd5b9392505050565b6000815180845260005b818110156104b85760208185018101518683018201520161049c565b506000602082860101526020601f19601f83011685010191505092915050565b60006020808301818452808551808352604092508286019150828160051b87010184880160005b8381101561056e57603f1989840301855281516080815181865261052582870182610492565b915050888201518582038a87015261053d8282610492565b838a0151878b01526060938401516001600160a01b03169390960192909252505093860193908601906001016104ff565b509098975050505050505050565b634e487b7160e01b600052604160045260246000fd5b600082601f8301126105a357600080fd5b813567ffffffffffffffff808211156105be576105be61057c565b604051601f8301601f19908116603f011681019082821181831017156105e6576105e661057c565b816040528381528660208588010111156105ff57600080fd5b836020870160208301376000602085830101528094505050505092915050565b6000806040838503121561063257600080fd5b823567ffffffffffffffff8082111561064a57600080fd5b61065686838701610592565b9350602085013591508082111561066c57600080fd5b5061067985828601610592565b9150509250929050565b600181811c9082168061069757607f821691505b6020821081036106b757634e487b7160e01b600052602260045260246000fd5b50919050565b601f82111561070757600081815260208120601f850160051c810160208610156106e45750805b601f850160051c820191505b81811015610703578281556001016106f0565b5050505b505050565b815167ffffffffffffffff8111156107265761072661057c565b61073a816107348454610683565b846106bd565b602080601f83116001811461076f57600084156107575750858301515b600019600386901b1c1916600185901b178555610703565b600085815260208120601f198616915b8281101561079e5788860151825594840194600190910190840161077f565b50858210156107bc5787850151600019600388901b60f8161c191681555b5050505050600190811b0190555056fea26469706673582212206c9e871f71a81d28d1063a364e2282e2affb8e04555558c3623183e9dadeb8e864736f6c63430008110033",
  "linkReferences": {},
  "deployedLinkReferences": {}
}